:1004A70050617373776F72643A004F4B2000455267
:0204B7005200F1
:10018C001204937BFF7A0479A77D017F0112041F6F
:10019C001200038F1CE51C60F7D3940A74809480C2
:1001AC005041C3E5199404E51894005036AE1AAFCB
:1001BC001B7C007D0A1202918E1A8F1BE51C75F0B8
:1001CC000A84E5F0251BF51BE4351AF51A0519E52B
:1001DC001970020518750C04AB1BAA1A7D017F025D
:1001EC001203FBE51C640B703CE51B64297004E5F1
:1001FC001A64097BFF70067A0479B180047A047959
:10020C00B57D0E7F0112041FE4F51AF51BF518F5E8
:10021C00197F14FE12047E750C04AB1BAA1A7D0107
:10022C007F021203FBE51C640C600302019CAE1AF6
:10023C00AF1BFC7D0A1202A38E1A8F1BE4F518F576
:10024C00197F14FE12047E750C04AB1BAA1A7D01D7
:08025C007F021203FB02019C6A
:10047E00EF1FAC0670011E4C600A7D027CEFDCFEA5
:04048E00DDFC80EC25
:010492002247
:0604B900C2A58F80D2A74E
:0804BF007F027EEFDEFEDFFC90
:0104C7002212
:0A04D400C2A61204B9C2A70204BFB9
:10044200CFCDCFCECCCE1202A37C007D0A1202A366
:04045200ED2430FF66
:0A045600D2A61204B9C2A70204BF27
:10046000AE07EEFB7A0064017004ED148009EB64C2
:0E047000024A7009ED243F4480FF1204D4229A
:100493007F381204D47F0C1204D47F061204D47F55
:0404A300010204D47A
:0A04DE00AC03120460AF04020456E0
:06041F008B088A09890A1E
:10042500120460E4FDAB08AA09A90A8D8275830050
:0C043500120264FF60061204560D80E9FC
:010441002298
:0A03CA00EF24FFFDEE34FFFC7F0A74
:0803D4008E0D8F0E8C0F8D10B1
:1003DC007F017E00E4FBEBC39510E50F6480F8749D
:0E03EC008098500AAC0DAD0E1202910B80E805
:0103FA0022E0
:0403FB008A0A8B0BD4
:1003FF00120460AA0CEAFF7E00D3940074809480EC
:0F040F00400D1203CAAC0AAD0B1204421A80E66C
:01041E0022BB
:040343008B828A839C
:10034700120460C3E58364809480400D7F2B120400
:100357005685831685821780107F2D120456C3E4B5
:100367009582F517E49583F516AA15EAFF7E00D363
:10037700940074809480400D1203CAAC16AD171216
:0503870004421A80E6AB
:01038C00224E
:0402F8008A1F8B20AE
:1002FC00120460AA21EAD39400748094804037EAF7
:10030C0024FFFDE434FFFC7F107E001203D4AC1FED
:10031C00AD20CFCDCFCECCCE1202A3EF540FFEC367
:10032C00940A74809480EE5004243080022437FFA9
:06033C001204561A80BFF6
:010342002298
:04038D008A248B250E
:10039100120460AA26EAFF7E00D394007480948040
:1003A1004026EF24FFFDEE34FFFC7F021203D4ACA4
:1003B10024AD25CFCDCFCECCCE1202A3EF54012454
:0803C10030FF1204561A80CD32
:0103C9002211
:10000300E4F5087590FFC2932097137F14FE120442
:100013007E3097FD7F147E0012047E7508012096C2
:10002300147F147E0012047E3096FD7F147E00122E
:10003300047E7508052095147F147E0012047E301B
:1000430095FD7F147E0012047E7508092094147FA9
:10005300147E0012047E3094FD7F147E0012047E11
:1000630075080D7590FFC2922097147F147E0012BD
:10007300047E3097FD7F147E0012047E75080220F3
:1000830096147F147E0012047E3096FD7F147E004A
:1000930012047E7508062095147F147E0012047ED8
:1000A3003095FD7F147E0012047E75080A20941497
:1000B3007F147E0012047E3094FD7F147E001204B0
:1000C3007E75080E7590FFC2912097147F147E00F1
:1000D30012047E3097FD7F147E0012047E750803A0
:1000E3002096147F147E0012047E3096FD7F147ECA
:1000F3000012047E7508072095147F147E001204F5
:100103007E3095FD7F147E0012047E75080B2094CB
:10011300147F147E0012047E3094FD7F147E00123F
:10012300047E75080F7590FFC2902097147F147E8C
:100133000012047E3097FD7F147E0012047E750842
:10014300042096147F147E0012047E3096FD7F14E3
:100153007E0012047E7508082095147F147E001219
:10016300047E3095FD7F147E0012047E75080C20FA
:1001730094147F147E0012047E3094FD7F147E005D
:0801830012047E750810AF089C
:01018B002251
:030000000204C82F
:0C04C800787FE4F6D8FD75812602018CD7
:10026400BB010CE58229F582E5833AF583E022504F
:1002740006E92582F8E622BBFE06E92582F8E22299
:0D028400E58229F582E5833AF583E49322B3
:10029100EF8DF0A4A8F0CF8CF0A428CE8DF0A42E81
:0202A100FE223B
:1002A300BC000BBE0029EF8DF084FFADF022E4CC3F
:1002B300F875F008EF2FFFEE33FEEC33FCEE9DEC08
:1002C300984005FCEE9DFE0FD5F0E9E4CEFD22ED4E
:1002D300F8F5F0EE8420D21CFEADF075F008EF2F98
:1002E300FFED33FD4007985006D5F0F222C398FD89
:0502F3000FD5F0EA2226
:00000001FF
