:1000CF0075A0FE1200F412000E8F0AE50A60F764A5
:1000DF000170F3050BC3E50B94027480948040E626
:0500EF00E4F50B80E1C7
:03000B0002006F81
:0F006F00C0E0C0D075D000C000C004C005C007FD
:10007E00758A18758CFC0509E50970020508C3948C
:10008E00F4E5089401402D750800750900E50BFD97
:10009E007C00700DAFA07801EF08800123D8FDF52C
:1000AE00A0ED64014C700DAFA07801EF0880010344
:0400BE00D8FDF5A0D4
:0D00C200D007D005D004D000D0D0D0E0325F
:1000F4005389F0438901758A18758CFCC28DD28CA2
:07010400D2A9D2AFC2B9225B
:10000E00E4F50C20B1137F14FE12010B30B1FD7F0D
:10001E00147E0012010B750C0120B0147F147E00AB
:10002E0012010B30B0FD7F147E0012010B750C0215
:10003E0020B2147F147E0012010B30B2FD7F147EAD
:10004E000012010B750C0320B3147F147E001201F5
:10005E000B30B3FD7F147E0012010B750C04AF0C38
:01006E00226F
:10010B00EF1FAC0670011E4C600A7D027CEFDCFE1B
:04011B00DDFC80EC9B
:01011F0022BD
:03000000020120DA
:0C012000787FE4F6D8FD75810C0200CF5A
:00000001FF
