:06026800C2A58F80D2A7A1
:08026E007F027EEFDEFEDFFCE3
:010276002265
:0A028300C2A6120268C2A702026EB2
:10020300CFCDCFCECCCE1200427C007D0A1200426D
:04021300ED2430FFA7
:0A021700D2A6120268C2A702026E0E
:10022100AE07EEFB7A0064017004ED148009EB6403
:0E023100024A7009ED243F4480FF120283222E
:100254007F381202837F0C1202837F061202837F8F
:04026400010202830E
:0A028D00AC03120221AF04020217B5
:0601BE008B228A23892434
:1001C400120221E4FDAB22AA23A9248D82758300A7
:0C01D400120003FF60061202170D80E904
:0101E00022FC
:0A016900EF24FFFDEE34FFFC7F0AD7
:080173008E0D8F0E8C0F8D1014
:10017B007F017E00E4FBEBC39510E50F6480F87400
:0E018B008098500AAC0DAD0E1200300B80E8CB
:010199002243
:04019A008A0A8B0B37
:10019E00120221AA0CEAFF7E00D394007480948090
:0F01AE00400D120169AC0AAD0B1202031A80E674
:0101BD00221F
:0400E2008B828A8300
:1000E600120221C3E58364809480400D7F2B1202A7
:1000F6001785831685821780107F2D120217C3E499
:100106009582F517E49583F516AA15EAFF7E00D3C6
:10011600940074809480400D120169AC16AD1712DC
:0501260002031A80E64F
:01012B0022B1
:040097008A1A8B1B1B
:10009B00120221AA1CEAD39400748094804037EAA0
:1000AB0024FFFDE434FFFC7F107E00120173AC1AB9
:1000BB00AD1BCFCDCFCECCCE120042EF540FFEC333
:1000CB00940A74809480EE5004243080022437FF0D
:0600DB001202171A80BF9B
:0100E10022FC
:04012C008A1F8B207B
:10013000120221AA21EAFF7E00D3940074809480E9
:100140004026EF24FFFDEE34FFFC7F02120173AC6A
:100150001FAD20CFCDCFCECCCE120042EF54012424
:0801600030FF1202171A80CDD6
:010168002274
:1001E1001202540526E526700205257FC87E0012FD
:1001F100023F750C03AB26AA257D017F0112019AEE
:0202010080E19A
:10023F00EF1FAC0670011E4C600A7D027CEFDCFEE6
:04024F00DDFC80EC66
:010253002288
:0300000002027782
:0C027700787FE4F6D8FD7581260201E1D5
:10000300BB010CE58229F582E5833AF583E02250B2
:1000130006E92582F8E622BBFE06E92582F8E222FC
:0D002300E58229F582E5833AF583E4932216
:10003000EF8DF0A4A8F0CF8CF0A428CE8DF0A42EE4
:02004000FE229E
:10004200BC000BBE0029EF8DF084FFADF022E4CCA2
:10005200F875F008EF2FFFEE33FEEC33FCEE9DEC6B
:10006200984005FCEE9DFE0FD5F0E9E4CEFD22EDB1
:10007200F8F5F0EE8420D21CFEADF075F008EF2FFB
:10008200FFED33FD4007985006D5F0F222C398FDEC
:050092000FD5F0EA2289
:00000001FF
