:04010E0002080000E3
:0400F6007F147E00F5
:1000FA00EF4E600F7D027CE6DCFEDDFCEF1F70F048
:03010A001E80ED67
:01010D0022CF
:10008F0075A0FE20B1311200F630B1FD1200F60559
:10009F0009E509AE087002050814C39407EE940031
:1000AF004005E4F508F509AF09A8077401088002B7
:1000BF00C333D8FCF4F5A020B0C91200F630B0FD60
:1000CF001200F6E5091509AE08700215084E700505
:1000DF00F508750907AF09A8077401088002C33333
:0700EF00D8FCF4F5A0809C91
:03000000020003F8
:0C000300787FE4F6D8FD75810902004A00
:10000F0002008FE493A3F8E493A34003F68001F278
:10001F0008DFF48029E493A3F85407240CC8C333F2
:10002F00C4540F4420C8834004F456800146F6DFC1
:10003F00E4800B010204081020408090010EE47E42
:10004F00019360BCA3FF543F30E509541FFEE493B6
:10005F00A360010ECF54C025E060A840B8E493A37D
:10006F00FAE493A3F8E493A3C8C582C8CAC583CAA8
:10007F00F0A3C8C582C8CAC583CADFE9DEE780BE60
:0101120000EC
:00000001FF
